{
  "contractName": "DocumentStorage",
  "abi": [
    {
      "anonymous": false,
      "inputs": [
        {
          "indexed": true,
          "internalType": "uint256",
          "name": "docId",
          "type": "uint256"
        },
        {
          "indexed": false,
          "internalType": "string",
          "name": "encryptedData",
          "type": "string"
        },
        {
          "indexed": false,
          "internalType": "address",
          "name": "owner",
          "type": "address"
        }
      ],
      "name": "DocumentStored",
      "type": "event"
    },
    {
      "inputs": [],
      "name": "docCount",
      "outputs": [
        {
          "internalType": "uint256",
          "name": "",
          "type": "uint256"
        }
      ],
      "stateMutability": "view",
      "type": "function",
      "constant": true
    },
    {
      "inputs": [
        {
          "internalType": "uint256",
          "name": "",
          "type": "uint256"
        }
      ],
      "name": "documents",
      "outputs": [
        {
          "internalType": "string",
          "name": "encryptedData",
          "type": "string"
        },
        {
          "internalType": "address",
          "name": "owner",
          "type": "address"
        }
      ],
      "stateMutability": "view",
      "type": "function",
      "constant": true
    },
    {
      "inputs": [
        {
          "internalType": "string",
          "name": "_encryptedData",
          "type": "string"
        }
      ],
      "name": "storeDocument",
      "outputs": [],
      "stateMutability": "nonpayable",
      "type": "function"
    },
    {
      "inputs": [
        {
          "internalType": "uint256",
          "name": "_docId",
          "type": "uint256"
        }
      ],
      "name": "retrieveDocument",
      "outputs": [
        {
          "internalType": "string",
          "name": "",
          "type": "string"
        },
        {
          "internalType": "address",
          "name": "",
          "type": "address"
        }
      ],
      "stateMutability": "view",
      "type": "function",
      "constant": true
    }
  ],
  "bytecode": "0x608060405234801561001057600080fd5b50610a80806100206000396000f3fe608060405234801561001057600080fd5b506004361061004c5760003560e01c80634c4dc6e014610051578063b644f3501461006f578063c2ed2b051461008b578063d18e1a31146100bc575b600080fd5b6100596100ed565b60405161006691906103ee565b60405180910390f35b61008960048036038101906100849190610563565b6100f3565b005b6100a560048036038101906100a091906105d8565b6101e9565b6040516100b39291906106c5565b60405180910390f35b6100d660048036038101906100d191906105d8565b6102b5565b6040516100e49291906106c5565b60405180910390f35b60015481565b60405180604001604052808281526020013373ffffffffffffffffffffffffffffffffffffffff16815250600080600154815260200190815260200160002060008201518160000190816101479190610901565b5060208201518160010160006101000a81548173ffffffffffffffffffffffffffffffffffffffff021916908373ffffffffffffffffffffffffffffffffffffffff1602179055509050506001547fbe5e06042071d0f162de790bb0206391d34ccb7647df96f3f6d5a809fdd18dbe82336040516101c69291906106c5565b60405180910390a2600160008154809291906101e190610a02565b919050555050565b600060205280600052604060002060009150905080600001805461020c90610724565b80601f016020809104026020016040519081016040528092919081815260200182805461023890610724565b80156102855780601f1061025a57610100808354040283529160200191610285565b820191906000526020600020905b81548152906001019060200180831161026857829003601f168201915b5050505050908060010160009054906101000a900473ffffffffffffffffffffffffffffffffffffffff16905082565b60606000806000808581526020019081526020016000206040518060400160405290816000820180546102e790610724565b80601f016020809104026020016040519081016040528092919081815260200182805461031390610724565b80156103605780601f1061033557610100808354040283529160200191610360565b820191906000526020600020905b81548152906001019060200180831161034357829003601f168201915b505050505081526020016001820160009054906101000a900473ffffffffffffffffffffffffffffffffffffffff1673ffffffffffffffffffffffffffffffffffffffff1673ffffffffffffffffffffffffffffffffffffffff16815250509050806000015181602001519250925050915091565b6000819050919050565b6103e8816103d5565b82525050565b600060208201905061040360008301846103df565b92915050565b6000604051905090565b600080fd5b600080fd5b600080fd5b600080fd5b6000601f19601f8301169050919050565b7f4e487b7100000000000000000000000000000000000000000000000000000000600052604160045260246000fd5b61047082610427565b810181811067ffffffffffffffff8211171561048f5761048e610438565b5b80604052505050565b60006104a2610409565b90506104ae8282610467565b919050565b600067ffffffffffffffff8211156104ce576104cd610438565b5b6104d782610427565b9050602081019050919050565b82818337600083830152505050565b6000610506610501846104b3565b610498565b90508281526020810184848401111561052257610521610422565b5b61052d8482856104e4565b509392505050565b600082601f83011261054a5761054961041d565b5b813561055a8482602086016104f3565b91505092915050565b60006020828403121561057957610578610413565b5b600082013567ffffffffffffffff81111561059757610596610418565b5b6105a384828501610535565b91505092915050565b6105b5816103d5565b81146105c057600080fd5b50565b6000813590506105d2816105ac565b92915050565b6000602082840312156105ee576105ed610413565b5b60006105fc848285016105c3565b91505092915050565b600081519050919050565b600082825260208201905092915050565b60005b8381101561063f578082015181840152602081019050610624565b60008484015250505050565b600061065682610605565b6106608185610610565b9350610670818560208601610621565b61067981610427565b840191505092915050565b600073ffffffffffffffffffffffffffffffffffffffff82169050919050565b60006106af82610684565b9050919050565b6106bf816106a4565b82525050565b600060408201905081810360008301526106df818561064b565b90506106ee60208301846106b6565b9392505050565b7f4e487b7100000000000000000000000000000000000000000000000000000000600052602260045260246000fd5b6000600282049050600182168061073c57607f821691505b60208210810361074f5761074e6106f5565b5b50919050565b60008190508160005260206000209050919050565b60006020601f8301049050919050565b600082821b905092915050565b6000600883026107b77fffffffffffffffffffffffffffffffffffffffffffffffffffffffffffffffff8261077a565b6107c1868361077a565b95508019841693508086168417925050509392505050565b6000819050919050565b60006107fe6107f96107f4846103d5565b6107d9565b6103d5565b9050919050565b6000819050919050565b610818836107e3565b61082c61082482610805565b848454610787565b825550505050565b600090565b610841610834565b61084c81848461080f565b505050565b5b8181101561087057610865600082610839565b600181019050610852565b5050565b601f8211156108b55761088681610755565b61088f8461076a565b8101602085101561089e578190505b6108b26108aa8561076a565b830182610851565b50505b505050565b600082821c905092915050565b60006108d8600019846008026108ba565b1980831691505092915050565b60006108f183836108c7565b9150826002028217905092915050565b61090a82610605565b67ffffffffffffffff81111561092357610922610438565b5b61092d8254610724565b610938828285610874565b600060209050601f83116001811461096b5760008415610959578287015190505b61096385826108e5565b8655506109cb565b601f19841661097986610755565b60005b828110156109a15784890151825560018201915060208501945060208101905061097c565b868310156109be57848901516109ba601f8916826108c7565b8355505b6001600288020188555050505b505050505050565b7f4e487b7100000000000000000000000000000000000000000000000000000000600052601160045260246000fd5b6000610a0d826103d5565b91507fffffffffffffffffffffffffffffffffffffffffffffffffffffffffffffffff8203610a3f57610a3e6109d3565b5b60018201905091905056fea26469706673582212201d840bb8efd55b42e573653f6ac703aa4c0360fd02210e24cae0dc3bc40ce99864736f6c63430008130033",
  "immutableReferences": {},
  "source": "// SPDX-License-Identifier: MIT\r\npragma solidity ^0.8.19;\r\n\r\ncontract DocumentStorage {\r\n    struct Document {\r\n        string encryptedData; // Encrypted document data\r\n        address owner; // Owner of the document\r\n    }\r\n    \r\n    mapping(uint256 => Document) public documents;\r\n    uint256 public docCount;\r\n\r\n    event DocumentStored(uint256 indexed docId, string encryptedData, address owner);\r\n\r\n    function storeDocument(string memory _encryptedData) public {\r\n        documents[docCount] = Document(_encryptedData, msg.sender);\r\n        emit DocumentStored(docCount, _encryptedData, msg.sender);\r\n        docCount++;\r\n    }\r\n\r\n    function retrieveDocument(uint256 _docId) public view returns (string memory, address) {\r\n        Document memory doc = documents[_docId];\r\n        return (doc.encryptedData, doc.owner);\r\n    }\r\n}\r\n",
  "sourcePath": "C:\\Users\\sraad\\Downloads\\DocumentStorage\\contracts\\DocumentStorage.sol",
  "compiler": {
    "name": "solc",
    "version": "0.8.19+commit.7dd6d404.Emscripten.clang"
  },
  "schemaVersion": "3.4.16",
  "updatedAt": "2024-10-03T11:18:49.586Z",
  "networkType": "ethereum",
  "devdoc": {
    "kind": "dev",
    "methods": {},
    "version": 1
  },
  "userdoc": {
    "kind": "user",
    "methods": {},
    "version": 1
  }
}